:020000040000FA
:020000000528D1
:040002000034003492
:06000A0025200628A001DC
:06001000FF30A000080013
:100020008312031700308F0008308D0083160317EA
:100030008C170C1400000000831203179201910129
:100040000E0892000C08910008008312031700307C
:100050008F0008308D0030308F000F308D00083059
:100060009000900A831603178C170C1555308D00DD
:10007000AA308D008C14000000000C1183120317AD
:1000800000308F0010088D00900A831603178C171C
:100090000C14000000008312031710301002031D1F
:0C00A000322810208312031307200800F0
:02400E00D420BC
:02401000FF3E71
:00000001FF
