:020000040000FA
:0C000000102007202520102007200528D4
:02000E0092015D
:06001000FF309200080021
:04001600003400347E
:100020008312031700308F0008308D0083160317EA
:100030008C170C140000000083120317910190012B
:100040000E0891000C08900008008312031700307E
:100050008F0008308D0030308E000F308C0008305B
:10006000831210300D0203190800831603178C1732
:100070000C1555308D00AA308D008C140000000046
:100080000C118312031700308F008D0A831603179B
:060090008C170C1430284F
:02400E00D420BC
:02401000FF3E71
:00000001FF
