:020000040000FA
:020000000728CF
:040002000034003492
:060008008B1320208B1772
:02000E000920C7
:100010000828831603130614861483160317890110
:100020008316031381138316031315149514831673
:1000300003139614831203138B178B150B140800EC
:100040000B1C08000B10861C08004808283C0319EC
:10005000C8012030840048308407861C2D2886186B
:100060002F28061C001006180014861C3528861838
:100070003728061C801006188014861C3D28861818
:100080003F28061C001106180015861C45288618F6
:100090004728061C801106188015861C4D288618D6
:1000A0004F28061C001206180016861C55288618B4
:1000B0005728061C801206188016861C5D28861894
:1000C0005F28061C001306180017861C6528861872
:1000D0006728061C801306188017861C6D28861852
:0E00E0006F28861C712886187328C80A08002D
:02400E00F5209B
:02401000FF3E71
:00000001FF
