:020000040000FA
:020000000528D1
:040002000034003492
:020008000828C6
:06000A00412051200E28E8
:1000100000308B000F2088308B0008000E28881BD2
:10002000A1177730A30015200800A308880000302E
:10003000A2001F20231B0800A30DA30A15280708F0
:10004000A800A809A80A2808220503192D20031DC5
:100050003620A20DA21F08001F282308A800A80907
:10006000A8172808A1042208A00408002308A80053
:10007000A8172808A1052208A800A8092808A00593
:100080000800831603138701FF308700860088016C
:100090008817831203137F308800870188308B0014
:1000A00008008316031389018312031389010800D2
:02400E00F5209B
:02401000FF3E71
:00000001FF
